{
  "_format": "hh-sol-artifact-1",
  "contractName": "CryptoDinoRun_KMS_Final",
  "sourceName": "contracts/CryptoDinoRun_KMS_Final.sol",
  "abi": [
    {
      "inputs": [],
      "stateMutability": "nonpayable",
      "type": "constructor"
    },
    {
      "anonymous": false,
      "inputs": [
        {
          "indexed": true,
          "internalType": "address",
          "name": "user",
          "type": "address"
        },
        {
          "indexed": false,
          "internalType": "uint256",
          "name": "timestamp",
          "type": "uint256"
        }
      ],
      "name": "CheckInCompleted",
      "type": "event"
    },
    {
      "anonymous": false,
      "inputs": [
        {
          "indexed": true,
          "internalType": "address",
          "name": "user",
          "type": "address"
        },
        {
          "indexed": false,
          "internalType": "uint256",
          "name": "amount",
          "type": "uint256"
        },
        {
          "indexed": false,
          "internalType": "bool",
          "name": "success",
          "type": "bool"
        }
      ],
      "name": "ClaimProcessed",
      "type": "event"
    },
    {
      "anonymous": false,
      "inputs": [
        {
          "indexed": true,
          "internalType": "address",
          "name": "user",
          "type": "address"
        },
        {
          "indexed": false,
          "internalType": "uint256",
          "name": "amount",
          "type": "uint256"
        }
      ],
      "name": "ClaimRequested",
      "type": "event"
    },
    {
      "anonymous": false,
      "inputs": [
        {
          "indexed": true,
          "internalType": "address",
          "name": "user",
          "type": "address"
        }
      ],
      "name": "ErrorChanged",
      "type": "event"
    },
    {
      "anonymous": false,
      "inputs": [
        {
          "indexed": true,
          "internalType": "address",
          "name": "user",
          "type": "address"
        },
        {
          "indexed": false,
          "internalType": "uint256",
          "name": "amount",
          "type": "uint256"
        }
      ],
      "name": "EthClaimed",
      "type": "event"
    },
    {
      "anonymous": false,
      "inputs": [
        {
          "indexed": true,
          "internalType": "address",
          "name": "user",
          "type": "address"
        },
        {
          "indexed": false,
          "internalType": "uint256",
          "name": "amount",
          "type": "uint256"
        }
      ],
      "name": "GmTokensBought",
      "type": "event"
    },
    {
      "anonymous": false,
      "inputs": [
        {
          "indexed": true,
          "internalType": "address",
          "name": "user",
          "type": "address"
        }
      ],
      "name": "GmTokensBoughtFHE",
      "type": "event"
    },
    {
      "anonymous": false,
      "inputs": [
        {
          "indexed": true,
          "internalType": "address",
          "name": "user",
          "type": "address"
        },
        {
          "indexed": false,
          "internalType": "uint64",
          "name": "count",
          "type": "uint64"
        }
      ],
      "name": "RaceBoughtWithGm",
      "type": "event"
    },
    {
      "anonymous": false,
      "inputs": [
        {
          "indexed": true,
          "internalType": "address",
          "name": "user",
          "type": "address"
        },
        {
          "indexed": false,
          "internalType": "string",
          "name": "result",
          "type": "string"
        }
      ],
      "name": "RaceCompleted",
      "type": "event"
    },
    {
      "anonymous": false,
      "inputs": [
        {
          "indexed": true,
          "internalType": "address",
          "name": "user",
          "type": "address"
        },
        {
          "indexed": false,
          "internalType": "uint8",
          "name": "slot",
          "type": "uint8"
        },
        {
          "indexed": false,
          "internalType": "uint256",
          "name": "prizeWei",
          "type": "uint256"
        },
        {
          "indexed": false,
          "internalType": "uint64",
          "name": "gmDelta",
          "type": "uint64"
        }
      ],
      "name": "RaceOutcome",
      "type": "event"
    },
    {
      "anonymous": false,
      "inputs": [
        {
          "indexed": true,
          "internalType": "address",
          "name": "user",
          "type": "address"
        },
        {
          "indexed": false,
          "internalType": "uint256",
          "name": "score",
          "type": "uint256"
        }
      ],
      "name": "ScorePublished",
      "type": "event"
    },
    {
      "anonymous": false,
      "inputs": [
        {
          "indexed": true,
          "internalType": "address",
          "name": "user",
          "type": "address"
        }
      ],
      "name": "ScoreUnpublished",
      "type": "event"
    },
    {
      "anonymous": false,
      "inputs": [
        {
          "indexed": true,
          "internalType": "address",
          "name": "user",
          "type": "address"
        },
        {
          "indexed": false,
          "internalType": "uint256",
          "name": "newTotalScore",
          "type": "uint256"
        },
        {
          "indexed": false,
          "internalType": "uint256",
          "name": "delta",
          "type": "uint256"
        }
      ],
      "name": "ScoreUpdated",
      "type": "event"
    },
    {
      "anonymous": false,
      "inputs": [
        {
          "indexed": true,
          "internalType": "address",
          "name": "user",
          "type": "address"
        },
        {
          "indexed": false,
          "internalType": "uint256",
          "name": "version",
          "type": "uint256"
        }
      ],
      "name": "UserStateChanged",
      "type": "event"
    },
    {
      "inputs": [],
      "name": "GM_TOKEN_RATE",
      "outputs": [
        {
          "internalType": "uint256",
          "name": "",
          "type": "uint256"
        }
      ],
      "stateMutability": "view",
      "type": "function"
    },
    {
      "inputs": [],
      "name": "SECONDS_PER_DAY",
      "outputs": [
        {
          "internalType": "uint256",
          "name": "",
          "type": "uint256"
        }
      ],
      "stateMutability": "view",
      "type": "function"
    },
    {
      "inputs": [],
      "name": "buyGmTokens",
      "outputs": [],
      "stateMutability": "payable",
      "type": "function"
    },
    {
      "inputs": [
        {
          "internalType": "externalEuint64",
          "name": "encryptedAmount",
          "type": "bytes32"
        },
        {
          "internalType": "bytes",
          "name": "proof",
          "type": "bytes"
        }
      ],
      "name": "buyGmTokensFHE",
      "outputs": [],
      "stateMutability": "payable",
      "type": "function"
    },
    {
      "inputs": [],
      "name": "buyRaceWithGm",
      "outputs": [],
      "stateMutability": "nonpayable",
      "type": "function"
    },
    {
      "inputs": [
        {
          "internalType": "uint64",
          "name": "count",
          "type": "uint64"
        }
      ],
      "name": "buyRaceWithGmBatch",
      "outputs": [],
      "stateMutability": "nonpayable",
      "type": "function"
    },
    {
      "inputs": [],
      "name": "checkIn",
      "outputs": [],
      "stateMutability": "nonpayable",
      "type": "function"
    },
    {
      "inputs": [
        {
          "internalType": "address",
          "name": "",
          "type": "address"
        }
      ],
      "name": "claimRequestAmount",
      "outputs": [
        {
          "internalType": "uint256",
          "name": "",
          "type": "uint256"
        }
      ],
      "stateMutability": "view",
      "type": "function"
    },
    {
      "inputs": [
        {
          "internalType": "address",
          "name": "",
          "type": "address"
        }
      ],
      "name": "claimRequestTimestamp",
      "outputs": [
        {
          "internalType": "uint256",
          "name": "",
          "type": "uint256"
        }
      ],
      "stateMutability": "view",
      "type": "function"
    },
    {
      "inputs": [],
      "name": "dailyGm",
      "outputs": [],
      "stateMutability": "nonpayable",
      "type": "function"
    },
    {
      "inputs": [],
      "name": "emergencyWithdraw",
      "outputs": [],
      "stateMutability": "nonpayable",
      "type": "function"
    },
    {
      "inputs": [
        {
          "internalType": "address",
          "name": "user",
          "type": "address"
        }
      ],
      "name": "getClaimRequest",
      "outputs": [
        {
          "internalType": "uint256",
          "name": "amount",
          "type": "uint256"
        },
        {
          "internalType": "uint256",
          "name": "timestamp",
          "type": "uint256"
        }
      ],
      "stateMutability": "view",
      "type": "function"
    },
    {
      "inputs": [],
      "name": "getContractBalance",
      "outputs": [
        {
          "internalType": "uint256",
          "name": "",
          "type": "uint256"
        }
      ],
      "stateMutability": "view",
      "type": "function"
    },
    {
      "inputs": [
        {
          "internalType": "address",
          "name": "user",
          "type": "address"
        }
      ],
      "name": "getEncryptedLastSlot",
      "outputs": [
        {
          "internalType": "euint64",
          "name": "",
          "type": "bytes32"
        }
      ],
      "stateMutability": "view",
      "type": "function"
    },
    {
      "inputs": [
        {
          "internalType": "address",
          "name": "user",
          "type": "address"
        }
      ],
      "name": "getEncryptedPendingEthWei",
      "outputs": [
        {
          "internalType": "euint64",
          "name": "",
          "type": "bytes32"
        }
      ],
      "stateMutability": "view",
      "type": "function"
    },
    {
      "inputs": [
        {
          "internalType": "address",
          "name": "user",
          "type": "address"
        }
      ],
      "name": "getEncryptedScore",
      "outputs": [
        {
          "internalType": "euint64",
          "name": "",
          "type": "bytes32"
        }
      ],
      "stateMutability": "view",
      "type": "function"
    },
    {
      "inputs": [
        {
          "internalType": "address",
          "name": "user",
          "type": "address"
        }
      ],
      "name": "getEncryptedUserBundle",
      "outputs": [
        {
          "internalType": "euint64",
          "name": "races",
          "type": "bytes32"
        },
        {
          "internalType": "euint64",
          "name": "gm",
          "type": "bytes32"
        },
        {
          "internalType": "euint64",
          "name": "pendingEthWei",
          "type": "bytes32"
        },
        {
          "internalType": "euint64",
          "name": "lastSlot",
          "type": "bytes32"
        },
        {
          "internalType": "euint64",
          "name": "score",
          "type": "bytes32"
        }
      ],
      "stateMutability": "view",
      "type": "function"
    },
    {
      "inputs": [
        {
          "internalType": "address",
          "name": "user",
          "type": "address"
        }
      ],
      "name": "getLastError",
      "outputs": [
        {
          "internalType": "euint8",
          "name": "code",
          "type": "bytes32"
        },
        {
          "internalType": "uint256",
          "name": "timestamp",
          "type": "uint256"
        }
      ],
      "stateMutability": "view",
      "type": "function"
    },
    {
      "inputs": [
        {
          "internalType": "address",
          "name": "user",
          "type": "address"
        }
      ],
      "name": "getPublicScore",
      "outputs": [
        {
          "internalType": "uint256",
          "name": "",
          "type": "uint256"
        }
      ],
      "stateMutability": "view",
      "type": "function"
    },
    {
      "inputs": [
        {
          "internalType": "uint256",
          "name": "offset",
          "type": "uint256"
        },
        {
          "internalType": "uint256",
          "name": "limit",
          "type": "uint256"
        }
      ],
      "name": "getPublishedRange",
      "outputs": [
        {
          "internalType": "address[]",
          "name": "addrs",
          "type": "address[]"
        },
        {
          "internalType": "uint256[]",
          "name": "scores",
          "type": "uint256[]"
        }
      ],
      "stateMutability": "view",
      "type": "function"
    },
    {
      "inputs": [
        {
          "internalType": "address",
          "name": "user",
          "type": "address"
        }
      ],
      "name": "getUserGmBalance",
      "outputs": [
        {
          "internalType": "euint64",
          "name": "",
          "type": "bytes32"
        }
      ],
      "stateMutability": "view",
      "type": "function"
    },
    {
      "inputs": [
        {
          "internalType": "address",
          "name": "user",
          "type": "address"
        }
      ],
      "name": "getUserRaces",
      "outputs": [
        {
          "internalType": "euint64",
          "name": "",
          "type": "bytes32"
        }
      ],
      "stateMutability": "view",
      "type": "function"
    },
    {
      "inputs": [
        {
          "internalType": "address",
          "name": "user",
          "type": "address"
        }
      ],
      "name": "getUserRewards",
      "outputs": [
        {
          "internalType": "euint256",
          "name": "",
          "type": "bytes32"
        }
      ],
      "stateMutability": "view",
      "type": "function"
    },
    {
      "inputs": [
        {
          "internalType": "address",
          "name": "user",
          "type": "address"
        }
      ],
      "name": "hasPendingClaim",
      "outputs": [
        {
          "internalType": "bool",
          "name": "",
          "type": "bool"
        }
      ],
      "stateMutability": "view",
      "type": "function"
    },
    {
      "inputs": [
        {
          "internalType": "address",
          "name": "user",
          "type": "address"
        }
      ],
      "name": "isScorePublished",
      "outputs": [
        {
          "internalType": "bool",
          "name": "",
          "type": "bool"
        }
      ],
      "stateMutability": "view",
      "type": "function"
    },
    {
      "inputs": [
        {
          "internalType": "address",
          "name": "",
          "type": "address"
        }
      ],
      "name": "lastCheckInDay",
      "outputs": [
        {
          "internalType": "uint256",
          "name": "",
          "type": "uint256"
        }
      ],
      "stateMutability": "view",
      "type": "function"
    },
    {
      "inputs": [
        {
          "internalType": "address",
          "name": "",
          "type": "address"
        }
      ],
      "name": "lastCheckInTime",
      "outputs": [
        {
          "internalType": "uint256",
          "name": "",
          "type": "uint256"
        }
      ],
      "stateMutability": "view",
      "type": "function"
    },
    {
      "inputs": [
        {
          "internalType": "address",
          "name": "",
          "type": "address"
        }
      ],
      "name": "lastOutcomeCommit",
      "outputs": [
        {
          "internalType": "bytes32",
          "name": "",
          "type": "bytes32"
        }
      ],
      "stateMutability": "view",
      "type": "function"
    },
    {
      "inputs": [
        {
          "internalType": "address",
          "name": "",
          "type": "address"
        }
      ],
      "name": "lastOutcomeNonce",
      "outputs": [
        {
          "internalType": "uint256",
          "name": "",
          "type": "uint256"
        }
      ],
      "stateMutability": "view",
      "type": "function"
    },
    {
      "inputs": [
        {
          "internalType": "address",
          "name": "user",
          "type": "address"
        },
        {
          "internalType": "uint256",
          "name": "decryptedAmount",
          "type": "uint256"
        }
      ],
      "name": "onClaimDecrypted",
      "outputs": [],
      "stateMutability": "nonpayable",
      "type": "function"
    },
    {
      "inputs": [],
      "name": "owner",
      "outputs": [
        {
          "internalType": "address",
          "name": "",
          "type": "address"
        }
      ],
      "stateMutability": "view",
      "type": "function"
    },
    {
      "inputs": [
        {
          "internalType": "address",
          "name": "",
          "type": "address"
        }
      ],
      "name": "pendingClaimRequests",
      "outputs": [
        {
          "internalType": "bool",
          "name": "",
          "type": "bool"
        }
      ],
      "stateMutability": "view",
      "type": "function"
    },
    {
      "inputs": [
        {
          "internalType": "address",
          "name": "",
          "type": "address"
        }
      ],
      "name": "pendingSettlement",
      "outputs": [
        {
          "internalType": "bool",
          "name": "",
          "type": "bool"
        }
      ],
      "stateMutability": "view",
      "type": "function"
    },
    {
      "inputs": [
        {
          "internalType": "uint256",
          "name": "score",
          "type": "uint256"
        }
      ],
      "name": "publishScore",
      "outputs": [],
      "stateMutability": "nonpayable",
      "type": "function"
    },
    {
      "inputs": [],
      "name": "race",
      "outputs": [],
      "stateMutability": "nonpayable",
      "type": "function"
    },
    {
      "inputs": [],
      "name": "raceLite",
      "outputs": [],
      "stateMutability": "nonpayable",
      "type": "function"
    },
    {
      "inputs": [
        {
          "internalType": "address",
          "name": "",
          "type": "address"
        }
      ],
      "name": "raceNonce",
      "outputs": [
        {
          "internalType": "uint256",
          "name": "",
          "type": "uint256"
        }
      ],
      "stateMutability": "view",
      "type": "function"
    },
    {
      "inputs": [],
      "name": "reinit",
      "outputs": [],
      "stateMutability": "nonpayable",
      "type": "function"
    },
    {
      "inputs": [
        {
          "internalType": "uint256",
          "name": "amountWei",
          "type": "uint256"
        }
      ],
      "name": "requestClaimETH",
      "outputs": [],
      "stateMutability": "nonpayable",
      "type": "function"
    },
    {
      "inputs": [
        {
          "internalType": "uint8",
          "name": "slot",
          "type": "uint8"
        }
      ],
      "name": "settlePrize",
      "outputs": [],
      "stateMutability": "nonpayable",
      "type": "function"
    },
    {
      "inputs": [
        {
          "internalType": "address",
          "name": "",
          "type": "address"
        }
      ],
      "name": "stateVersion",
      "outputs": [
        {
          "internalType": "uint256",
          "name": "",
          "type": "uint256"
        }
      ],
      "stateMutability": "view",
      "type": "function"
    },
    {
      "inputs": [],
      "name": "unpublishScore",
      "outputs": [],
      "stateMutability": "nonpayable",
      "type": "function"
    },
    {
      "stateMutability": "payable",
      "type": "receive"
    }
  ],
  "bytecode": "0x608060409080825234620002b55762000018816200037d565b5f81525f606060209282848201528285820152015281516200003a816200037d565b73687820221192c5b662b25367f70076a37bc79b6c80825273848b0066793bcc60346da1f49049357399b8d5959081848401526060731364cbbf2cdf5032c47d8226a6f6fbd2afcdacac93848782015273bc91f3dad1a5f19f8390c400196e58073b6a0bc4918291015260018060a01b0319917fed8d60e34876f751cc8b014c560745351147d9de11b9347c854e881b128ea60090838254161790557fed8d60e34876f751cc8b014c560745351147d9de11b9347c854e881b128ea6019383838654161785557fed8d60e34876f751cc8b014c560745351147d9de11b9347c854e881b128ea60290838254161790557fed8d60e34876f751cc8b014c560745351147d9de11b9347c854e881b128ea60390828254161790557f5ea69329017273582817d320489fbd94f775580e90c092699ca6f3d12fdf7d007333347831500f1e73f0cccbb95c9f86b94d7b1123828254161790553390600a541617600a5583519083826044815f639cd07acb60e01b95868352816004840152600260248401525af1801562000373575f9062000340575b5f9250600f5560018060a01b03928484825416604488518096819387835260016004840152600260248401525af1801562000303575f906200030d575b5f93506010558484825416604488518096819387835260026004840152600260248401525af18015620003035785935f91620002cb575b50936044915f9560115554169186519485938492835260036004840152600260248401525af1918215620002c1575f9262000289575b505060125551612c8b9081620003d28239f35b90809250813d8311620002b9575b620002a38183620003ad565b81010312620002b557515f8062000276565b5f80fd5b503d62000297565b83513d5f823e3d90fd5b8481939592503d8311620002fb575b620002e68183620003ad565b81010312620002b55751849290604462000240565b503d620002da565b86513d5f823e3d90fd5b508483813d831162000338575b620003268183620003ad565b81010312620002b5575f925162000209565b503d6200031a565b508382813d83116200036b575b620003598183620003ad565b81010312620002b5575f9151620001cc565b503d6200034d565b85513d5f823e3d90fd5b608081019081106001600160401b038211176200039957604052565b634e487b7160e01b5f52604160045260245ffd5b601f909101601f19168101906001600160401b03821190821017620003995760405256fe6080604090808252600480361015610021575b505050361561001f575f80fd5b005b5f915f3560e01c908163078b0fb71461217a5750806307c77ccb1461213e57806311df50451461203d578063183ff08514610ee557806318af7c2814611d3d57806319a9026514611d0657806324a13fc014611ccf57806324a573ca14611c9857806324cfbaa614611c555780632fed418414611c19578063328c81a314611be2578063426120cd146115f65780634efaca651461158b578063691ba73a146111ce5780636bb92a82146111b25780636f9fb98a146111985780637224b7471461116157806374f0314f1461114457806375f361971461110d5780637ed00b2d146110f5578063823db0a114610f575780638489302e14610f215780638849d73b14610eea5780638d96e68914610ee55780638da5cb5b14610ebe57806394453fae14610e8757806397f3952614610e51578063a72c6b2214610daf578063ae0ce37014610d78578063c482ceaf14610c97578063c483da2214610c60578063c6a59d6714610c24578063caf0ca4714610bcf578063cf1ae5b114610b5b578063cf94ba0f146108fa578063d5d12f5e146106b6578063d67847541461067f578063db2e21bc146105e8578063df426b10146105b1578063e52e9144146104cc578063e644924b146104905763ee581d7c03610012573461048c578260031936011261048c5761020f6121ae565b903315610449576001600160a01b03821690818452602090600b825260ff86862054161561040857828552600c8252858520549081602435106103c657838652600b835286862060ff198154169055600c83528587812055600d8352858781205560058352610282878720543090612b5f565b838652600583526102968588882054612b5f565b838652600583526102d36102c0888820546102ba67ffffffffffffffff8616612a23565b90612985565b8588526005855280898920553090612b5f565b838652600583526102e78588882054612b5f565b8580808085895af13d156103c1573d6102ff81612676565b9061030c8a51928361223c565b815287853d92013e5b1561037f5750907f0d7976053781e071cecf47e898ad2a6dc87621ca33734e96eb4b92453319e8c99186847f0297329099dae5ca4aa6944c9566214495dd85b044885e9f5a04afa95d548bd18261037c999a51858152600187820152a251908152a261289e565b80f35b6064908388519162461bcd60e51b8352820152601360248201527f455448207472616e73666572206661696c6564000000000000000000000000006044820152fd5b610315565b6064908388519162461bcd60e51b8352820152601d60248201527f496e73756666696369656e742064656372797074656420616d6f756e740000006044820152fd5b60649186519162461bcd60e51b8352820152601060248201527f4e6f2070656e64696e6720636c61696d000000000000000000000000000000006044820152fd5b606490602085519162461bcd60e51b8352820152600860248201527f4f6e6c79204b4d530000000000000000000000000000000000000000000000006044820152fd5b5080fd5b82843461048c57602036600319011261048c5760ff816020936001600160a01b036104b96121ae565b168152600b855220541690519015158152f35b5082346105ad5760203660031901126105ad578135913384526014602052818420805460ff811615610533575b50505060136020528181842055519081527fa8004ebd362175ae54576800b471d2ee0e957a999351c9beec953da1fc20fd4060203392a280f35b60ff19166001179055601554906801000000000000000082101561059a575061056581600161058393016015556123cc565b33906001600160a01b038084549260031b9316831b921b1916179055565b6015543384526016602052818420558380806104f9565b846041602492634e487b7160e01b835252fd5b8280fd5b82843461048c57602036600319011261048c57806020926001600160a01b036105d86121ae565b1681526001845220549051908152f35b508290346105ad57826003193601126105ad576001600160a01b03600a54169081330361063c575082808080934790828215610633575bf115610629575080f35b51903d90823e3d90fd5b506108fc61061f565b606490602084519162461bcd60e51b8352820152600a60248201527f4f6e6c79206f776e6572000000000000000000000000000000000000000000006044820152fd5b82843461048c57602036600319011261048c57806020926001600160a01b036106a66121ae565b168152600c845220549051908152f35b508290346105ad57826003193601126105ad576106d233612692565b3383526020916001835280842054916001600160a01b035f80516020612c5f833981519152918183541691845187816044815f639cd07acb60e01b98898352600989840152600560248401525af19081156108f05790889392915f916108bf575b50935f604492610745600a978b6128e7565b975416885196879586948552840152600560248401525af19081156108b5575f91610880575b50906107bb6107a8856107a2610821957fa453eeeddcb9930dfce03a7946ed391bfb7f2adbe2a00e473c5f0524f824d5af98612985565b84612bf2565b3388526001875280858920553090612b5f565b338652600185526107cf3384882054612b5f565b3386528585526108026107f0848820546107a26107ea612ac1565b826127c6565b33885287875280858920553090612b5f565b3386528585526108153384882054612b5f565b600f5460105491612bf2565b81519061082d826121dc565b81526001848201428152338752600e865283872092518355519101555191337f9c458d4af2e97b032bd1b235a5af0367e4aa9e385b6b4a8ba12d83ee8804659e8580a2600183523392a261037c3361289e565b9190508482813d83116108ae575b610898818361223c565b810103126108aa5790516107bb61076b565b5f80fd5b503d61088e565b83513d5f823e3d90fd5b84819592503d83116108e9575b6108d6818361223c565b810103126108aa5791518792905f610733565b503d6108cc565b86513d5f823e3d90fd5b5091806003193601126108aa5760243567ffffffffffffffff938482116108aa57366023830112156108aa57818101359485116108aa5736602486840101116108aa575f60249261094a33612692565b61095387612676565b966109608651988961223c565b80885280602095869301838a0137870101526001600160a01b0382815f80516020612c5f83398151915254169685519788917f196d0b9b000000000000000000000000000000000000000000000000000000008352853586840152336024840152608060448401528051908160848501525f5b828110610b435750505f60a48483838383968401015260056064830152601f801991011681010301925af1958615610b39575f96610b0a575b507fed8d60e34876f751cc8b014c560745351147d9de11b9347c854e881b128ea6005416803b156108aa5783517f3e395cec0000000000000000000000000000000000000000000000000000000081529182018681523360208201525f91839182908490829060400103925af180156108b557610af0575b50600190610ab4610aa2610ac29596338852848452858820546127c6565b33875283835280858820553090612b5f565b338552523390832054612b5f565b337f5eb22460289ffca9a6ef15bf87f9445e6c3d405ec0b5e00e29f466970fbdbaa78280a261037c3361289e565b610ac2935090610b0160019261220c565b5f935090610a84565b9095508281813d8311610b32575b610b22818361223c565b810103126108aa5751945f610a0c565b503d610b18565b84513d5f823e3d90fd5b8181018601518c820160a4015288958c9550016109d3565b8382346108aa5760203660031901126108aa573590610b7933612692565b335f52600b602052805f20600160ff19825416179055600c60205281815f2055600d60205242815f2055519081527f71431efdffe03bc79c5607c1cf67764f4cf3e224fb5e5dfc04178260aa0b932260203392a2005b83346108aa5760203660031901126108aa576001600160a01b03610bf16121ae565b165f52600e602052805f2060208251610c09816121dc565b60018354938483520154918291015282519182526020820152f35b83346108aa5760203660031901126108aa576020906001600160a01b03610c496121ae565b165f526014825260ff815f20541690519015158152f35b83346108aa5760203660031901126108aa576020906001600160a01b03610c856121ae565b165f5260078252805f20549051908152f35b5082346108aa575f3660031901126108aa576005610d6f92335f5260209060018252610cc7845f20543090612b5f565b335f5260018252610cdb33855f2054612b5f565b335f525f8252610cee30855f2054612b5f565b335f525f8252610d0133855f2054612b5f565b335f5260038252610d1530855f2054612b5f565b335f5260038252610d2933855f2054612b5f565b335f52808252610d3c30855f2054612b5f565b335f528152610d4e33845f2054612b5f565b335f52818152610d6130845f2054612b5f565b335f525233905f2054612b5f565b61001f3361289e565b83346108aa5760203660031901126108aa576020906001600160a01b03610d9d6121ae565b165f5260138252805f20549051908152f35b8382346108aa57816003193601126108aa57610dcf9060243590356125a6565b8251838152825193810184905292839260209160608501918301905f5b818110610e3157505050838103828501528180845192838152019301915f5b828110610e1a57505050500390f35b835185528695509381019392810192600101610e0b565b82516001600160a01b031684528796509284019291840191600101610dec565b83346108aa5760203660031901126108aa576020906001600160a01b03610e766121ae565b165f525f8252805f20549051908152f35b83346108aa5760203660031901126108aa576020906001600160a01b03610eac6121ae565b165f5260188252805f20549051908152f35b83346108aa575f3660031901126108aa576020906001600160a01b03600a54169051908152f35b6121c4565b83346108aa5760203660031901126108aa576020906001600160a01b03610f0f6121ae565b165f5260178252805f20549051908152f35b5082346108aa5760203660031901126108aa576020916001600160a01b03610f476121ae565b165f528252805f20549051908152f35b5082346108aa576020806003193601126108aa5782359167ffffffffffffffff8084168094036108aa57610f8a33612692565b831515806110ea575b156110a857335f5260018352815f205490600a850295818716968703611095575f19870190828211611095575095611029611016611072946107a261101061100a611004611060987fa453eeeddcb9930dfce03a7946ed391bfb7f2adbe2a00e473c5f0524f824d5af9d9e16612a23565b846128e7565b95612a23565b82612985565b335f526001875280865f20553090612b5f565b335f526001855261103d33855f2054612b5f565b335f525f8552835f20549061105a61105489612a23565b836127c6565b90612bf2565b335f525f845280835f20553090612b5f565b335f525f825261108533825f2054612b5f565b519283523392a261001f3361289e565b601190634e487b7160e01b5f525260245ffd5b6064858484519162461bcd60e51b8352820152600d60248201527f696e76616c696420636f756e74000000000000000000000000000000000000006044820152fd5b506032841115610f93565b346108aa575f3660031901126108aa5761001f612415565b83346108aa5760203660031901126108aa576020906001600160a01b036111326121ae565b165f5260058252805f20549051908152f35b83346108aa575f3660031901126108aa5760209051620151808152f35b83346108aa5760203660031901126108aa576020906001600160a01b036111866121ae565b165f52600d8252805f20549051908152f35b83346108aa575f3660031901126108aa5751478152602090f35b83346108aa575f3660031901126108aa57602090516103e88152f35b5082346108aa575f3660031901126108aa576111e933612692565b335f526020905f8252611200815f20543090612b5f565b335f525f825261121333825f2054612b5f565b335f525f825261126e815f205461124f61123d611231611004612a73565b926107a2611010612ac1565b335f525f865280855f20553090612b5f565b335f525f845261126233845f2054612b5f565b600f5460125491612bf2565b81519061127a826121dc565b81526001838201428152335f52600e8552835f2092518355519101558051337f9c458d4af2e97b032bd1b235a5af0367e4aa9e385b6b4a8ba12d83ee8804659e5f80a2448184019081524260208201523360601b6bffffffffffffffffffffffff1916604082015243605482015281607482010391611301601f199384810183528261223c565b519020600160648206101561156557505f5b600581036115395760ff6005915b169060ff8451918383525f8784015216848201527ffa5a60308c960aa83c134b497f2451f0ea65189636b06e33e9f8fcb31e6d490f60603392a282517f623072e00e5fbbd244dc11b8655c43fe1812f3c124370e2f824ac7cf08f54f763391806113bd8160609060208152600e60208201527f5261636520636f6d706c6574656400000000000000000000000000000000000060408201520190565b0390a2335f5260178452825f20549161144284519182611436888201958733308992604994917fff00000000000000000000000000000000000000000000000000000000000000936bffffffffffffffffffffffff19809260601b16865260601b166014850152602884015260f81b1660488201520190565b0390810183528261223c565b519020335f5260188452825f20556019835280825f2055601a8352815f20600160ff198254161790556001810180911161152657907f91878448ef87c3db4aeb83e60e7deb1240ecae3fd04975ec93547398514cb4ed91335f5260178452815f2055600383526114b530825f2054612b5f565b335f52600383526114c933825f2054612b5f565b335f52600383526114fb6114e8825f20546114e2612b10565b906127c6565b335f526003855280835f20553090612b5f565b335f526003835261150f33825f2054612b5f565b60648151935f85528401523392a261001f3361289e565b601184634e487b7160e01b5f525260245ffd5b6006810361154c5760ff600f5b91611321565b6007810361155d5760ff601e611546565b60ff5f611546565b60646007910406600181018091111561131357601185634e487b7160e01b5f525260245ffd5b8382346108aa576020806003193601126108aa5760a0926001600160a01b036115b26121ae565b165f525f8252805f20549260018352815f20549160058452805f2054918452805f20549260038552815f205494825196875286015284015260608301526080820152f35b5082346108aa576020806003193601126108aa5782359260ff8416938481036108aa5761162233612692565b335f52601a835260ff845f20541615611ba057335f52601983526116ab6116b9855f20549286519283918783019533308892604994917fff00000000000000000000000000000000000000000000000000000000000000936bffffffffffffffffffffffff19809260601b16865260601b166014850152602884015260f81b1660488201520190565b03601f19810183528261223c565b519020335f5260188352835f205403611b5f578361183557335f5260058083526116e630855f2054612b5f565b335f528083526116f933855f2054612b5f565b335f528083525f84812054846001600160a01b035f80516020612c5f83398151915254166044885180958193639cd07acb60e01b835267016345785d8a00008a8401528860248401525af19182156108f0575f926117ff575b505f96601895949361177f61176d6117ce956117bc956127c6565b338b52828852808a8c20553090612b5f565b338952855261179133888a2054612b5f565b3388528385526117a430888a2054612b5f565b3388528385526117b733888a2054612b5f565b612a23565b33875282845280868820553090612b5f565b33855281526117e03384862054612b5f565b338452601a815282842060ff1981541690555281205561001f3361289e565b9091508481819594963d831161182e575b61181a818361223c565b810103126108aa575192939192905f611752565b503d611810565b60018481036119275750335f52600580835261185430855f2054612b5f565b335f5280835261186733855f2054612b5f565b335f528083525f84812054846001600160a01b035f80516020612c5f83398151915254166044885180958193639cd07acb60e01b8352662386f26fc100008a8401528860248401525af19182156108f0575f926118f1575b505f9660189594936118da61176d6117ce956117bc956127c6565b33895285526118ec33888a2054612b5f565b611791565b9091508481819594963d8311611920575b61190c818361223c565b810103126108aa575192939192905f6118bf565b503d611902565b600585036119c257335f5280835261194230855f2054612b5f565b335f5280835261195533855f2054612b5f565b335f528083525f84812054846001600160a01b035f80516020612c5f83398151915254166044885180958193639cd07acb60e01b835260058a840152600560248401525af19182156108f0575f926118f157505f9660189594936118da61176d6117ce956117bc956127c6565b60068503611a5d57335f528083526119dd30855f2054612b5f565b335f528083526119f033855f2054612b5f565b335f528083525f84812054846001600160a01b035f80516020612c5f83398151915254166044885180958193639cd07acb60e01b8352600f8a840152600560248401525af19182156108f0575f926118f157505f9660189594936118da61176d6117ce956117bc956127c6565b60078514611a78575b50906018916117ce6117bc5f96611791565b335f52808352611a8b30855f2054612b5f565b335f52808352611a9e33855f2054612b5f565b335f528083525f84812054846001600160a01b035f80516020612c5f83398151915254166044885180958193639cd07acb60e01b8352601e8a840152600560248401525af19182156108f0575f92611b29575b505f966018959493611b0c61176d6117ce956117bc956127c6565b3389528552611b1e33888a2054612b5f565b965050509091611a66565b9091508481819594963d8311611b58575b611b44818361223c565b810103126108aa575192939192905f611af1565b503d611b3a565b90606492519162461bcd60e51b8352820152601260248201527f496e76616c696420736574746c656d656e7400000000000000000000000000006044820152fd5b5090606492519162461bcd60e51b8352820152601060248201527f4e6f2070656e64696e67207072697a65000000000000000000000000000000006044820152fd5b83346108aa5760203660031901126108aa576020906001600160a01b03611c076121ae565b165f5260098252805f20549051908152f35b83346108aa5760203660031901126108aa576020906001600160a01b03611c3e6121ae565b165f52601a825260ff815f20541690519015158152f35b83346108aa5760203660031901126108aa576001600160a01b03611c776121ae565b165f52600c602052805f2054600d602052815f205482519182526020820152f35b83346108aa5760203660031901126108aa576020906001600160a01b03611cbd6121ae565b165f5260038252805f20549051908152f35b83346108aa5760203660031901126108aa576020906001600160a01b03611cf46121ae565b165f5260198252805f20549051908152f35b83346108aa5760203660031901126108aa576020906001600160a01b03611d2b6121ae565b165f5260068252805f20549051908152f35b5082346108aa575f3660031901126108aa57611d5833612692565b335f526020915f8352611d6f825f20543090612b5f565b335f525f8352611d8233835f2054612b5f565b335f525f8352611dc6611db4835f2054611da3611d9d612a73565b826128e7565b61105a611dae612ac1565b83612985565b335f525f855280845f20553090612b5f565b335f525f8352611dd933835f2054612b5f565b8151448482019081524260208201523360601b6bffffffffffffffffffffffff1916604082015243605482015290919082607482010392611e22601f199485810183528261223c565b519020600160648206101561201757505f5b60058103611feb5760ff6005915b169060ff8551918383525f8884015216858201527ffa5a60308c960aa83c134b497f2451f0ea65189636b06e33e9f8fcb31e6d490f60603392a283517f623072e00e5fbbd244dc11b8655c43fe1812f3c124370e2f824ac7cf08f54f76339180611ede8160609060208152600e60208201527f5261636520636f6d706c6574656400000000000000000000000000000000000060408201520190565b0390a2335f5260178552835f205492611f5785519182611436898201958833308992604994917fff00000000000000000000000000000000000000000000000000000000000000936bffffffffffffffffffffffff19809260601b16865260601b166014850152602884015260f81b1660488201520190565b519020335f5260188552835f20556019845281835f2055601a8452825f20600160ff19825416179055600182018092116110955750610d6f92600391335f5260178252835f2055818152611fae30845f2054612b5f565b335f52818152611fc133845f2054612b5f565b335f52818152610d61611fd9845f20546114e2612b10565b335f5283835280855f20553090612b5f565b60068103611ffe5760ff600f5b91611e42565b6007810361200f5760ff601e611ff8565b60ff5f611ff8565b606460079104066001810180911115611e3457601182634e487b7160e01b5f525260245ffd5b83825f3660031901126108aa5761205333612692565b34156120fc576103e89081340291348304036110955750670de0b6b3a76400009004906120b46120a061208f67ffffffffffffffff8516612a23565b335f526001602052835f20546127c6565b335f52600160205280835f20553090612b5f565b335f5260016020526120c933825f2054612b5f565b519081527f2df747ea49445e73b60e268d884585144855c4f022c8d6c7aad44708a9c83b2260203392a261001f3361289e565b6020606492519162461bcd60e51b8352820152600d60248201527f4d7573742073656e6420455448000000000000000000000000000000000000006044820152fd5b83346108aa5760203660031901126108aa576020906001600160a01b036121636121ae565b165f52600b825260ff815f20541690519015158152f35b8490346108aa5760203660031901126108aa576020916001600160a01b036121a06121ae565b165f52600283525f20548152f35b600435906001600160a01b03821682036108aa57565b346108aa575f3660031901126108aa5761001f61225e565b6040810190811067ffffffffffffffff8211176121f857604052565b634e487b7160e01b5f52604160045260245ffd5b67ffffffffffffffff81116121f857604052565b6020810190811067ffffffffffffffff8211176121f857604052565b90601f8019910116810190811067ffffffffffffffff8211176121f857604052565b61226733612692565b620151804204335f5260209060078252604090815f205481111561235657907f81a25468fabedbbaa9179ae90960445ca6426a7aeae439b462bb74f0a89ab3759160078452815f20556006835242815f20555f83526122e06122ce825f20546114e2612ac1565b335f525f855280835f20553090612b5f565b335f525f83526122f333825f2054612b5f565b600f54815190612302826121dc565b81526001848201428152335f52600e8652835f2092518355519101555191337f9c458d4af2e97b032bd1b235a5af0367e4aa9e385b6b4a8ba12d83ee8804659e5f80a24283523392a26123543361289e565b565b50906001906011549280519361236b856121dc565b8452600e82850192428452335f52525f209251835551910155337f9c458d4af2e97b032bd1b235a5af0367e4aa9e385b6b4a8ba12d83ee8804659e5f80a2565b919082018092116123b857565b634e487b7160e01b5f52601160045260245ffd5b6015548110156124015760155f527f55f448fdea98c4d29eb340757ef0a66cd03dbb9538908a6a81d96026b71ec47501905f90565b634e487b7160e01b5f52603260045260245ffd5b335f52601460205260405f20805460ff8116156125445760ff1916905560136020525f6040812055601660205260405f205480612475575b50337f1c6b0c6e774ba78fff6fe943c64e4e530cb52e0ddf625dd35cb80a0f2bd150a05f80a2565b6015548082036124d5575b505060155480156124c1575f1901612497816123cc565b6001600160a01b0382549160031b1b19169055601555335f5260166020525f60408120555f61244d565b634e487b7160e01b5f52603160045260245ffd5b5f19908082019081116123b8576124f36001600160a01b03916123cc565b90549060031b1c169082018281116123b85781612512612531926123cc565b9091906001600160a01b038084549260031b9316831b921b1916179055565b5f52601660205260405f20555f80612480565b5050565b67ffffffffffffffff81116121f85760051b60200190565b9061256a82612548565b612577604051918261223c565b8281528092612588601f1991612548565b0190602036910137565b80518210156124015760209160051b010190565b9091601554928383101561264a576125be90836123ab565b92808411612642575b508183039283116123b8576125db83612560565b926125e581612560565b925f5b8281106125f457505050565b806001600160a01b0361261161260c600194866123ab565b6123cc565b90549060031b1c1680612624838a612592565b525f52601360205260405f205461263b8288612592565b52016125e8565b92505f6125c7565b509150506040519061265b82612220565b5f82526040519161266b83612220565b5f83525f3681379190565b67ffffffffffffffff81116121f857601f01601f191660200190565b6001600160a01b03811690815f5260206008815260409260ff845f2054166127c0576127ae6008936126d86126c5612a73565b845f526001865280885f20553090612b5f565b825f52600184526126ec81875f2054612b5f565b6127096126f7612a73565b845f525f865280885f20553090612b5f565b825f525f845261271c81875f2054612b5f565b61273a612727612a73565b845f526003865280885f20553090612b5f565b825f526003845261274e81875f2054612b5f565b61276c612759612a73565b845f526004865280885f20553090612b5f565b825f526004845261278081875f2054612b5f565b61279e61278b612a73565b845f526005865280885f20553090612b5f565b825f5260058452855f2054612b5f565b5f52525f20600160ff19825416179055565b50505050565b90811561288e575b801561287c575b60209060646001600160a01b035f80516020612c5f8339815191525416935f60405195869485937f117b2f38000000000000000000000000000000000000000000000000000000008552600485015260248401528160448401525af1908115612871575f91612842575090565b90506020813d602011612869575b8161285d6020938361223c565b810103126108aa575190565b3d9150612850565b6040513d5f823e3d90fd5b506020612887612a73565b90506127d5565b9050612898612a73565b906127ce565b6001600160a01b0316805f5260096020527faab469e68c1a9950d09bf98d5dbd05ceb4e8e5d3fc891afa9be48ff1911ad4a3602060405f206001815401809155604051908152a2565b908115612975575b8015612963575b60209060646001600160a01b035f80516020612c5f8339815191525416935f60405195869485937f85362ee7000000000000000000000000000000000000000000000000000000008552600485015260248401528160448401525af1908115612871575f91612842575090565b50602061296e612a73565b90506128f6565b905061297f612a73565b906128ef565b908115612a13575b8015612a01575b60209060646001600160a01b035f80516020612c5f8339815191525416935f60405195869485937f182b6d98000000000000000000000000000000000000000000000000000000008552600485015260248401528160448401525af1908115612871575f91612842575090565b506020612a0c612a73565b9050612994565b9050612a1d612a73565b9061298d565b60205f9160446001600160a01b035f80516020612c5f8339815191525416916040519485938492639cd07acb60e01b84526004840152600560248401525af1908115612871575f91612842575090565b5f60206001600160a01b035f80516020612c5f8339815191525416604460405180948193639cd07acb60e01b8352816004840152600560248401525af1908115612871575f91612842575090565b5f60206001600160a01b035f80516020612c5f8339815191525416604460405180948193639cd07acb60e01b835260016004840152600560248401525af1908115612871575f91612842575090565b5f60206001600160a01b035f80516020612c5f8339815191525416604460405180948193639cd07acb60e01b835260646004840152600560248401525af1908115612871575f91612842575090565b6001600160a01b037fed8d60e34876f751cc8b014c560745351147d9de11b9347c854e881b128ea600541691823b156108aa576040517fb9496b6200000000000000000000000000000000000000000000000000000000815260048101929092526001600160a01b03166024820152905f908290604490829084905af1801561287157612be95750565b6123549061220c565b9060646020925f6001600160a01b035f80516020612c5f833981519152541660405196879586947f7702dcff0000000000000000000000000000000000000000000000000000000086526004860152602485015260448401525af1908115612871575f9161284257509056feed8d60e34876f751cc8b014c560745351147d9de11b9347c854e881b128ea601a164736f6c6343000818000a",
  "linkReferences": {},
  "deployedLinkReferences": {}
}